:020000040800F2
:10000000E025002029020008D90700084B0300085A
:10001000D5070008B5060008DB0C0008000000004A
:100020000000000000000000000000007D09000842
:10003000B906000800000000970200086D0A0008D9
:10004000430200084302000843020008430200087C
:10005000430200084302000843020008430200086C
:10006000430200084302000843020008430200085C
:10007000430200084302000843020008430200084C
:10008000430200084302000843020008430200083C
:10009000430200084302000843020008430200082C
:1000A000430200084302000843020008430200081C
:1000B000430200084302000843020008430200080C
:1000C00043020008430200084302000843020008FC
:1000D00043020008E50A0008430200084302000842
:1000E00043020008430200084302000843020008DC
:1000F00043020008430200084302000843020008CC
:1001000043020008430200084302000843020008BB
:1001100043020008430200084302000843020008AB
:10012000430200084302000843020008430200089B
:10013000430200084302000843020008430200088B
:10014000430200084302000843020008430200087B
:10015000430200084302000843020008430200086B
:10016000430200084302000843020008430200085B
:10017000430200084302000843020008430200084B
:10018000430200084302000800F002F800F03CF8C7
:100190000AA090E8000C82448344AAF10107DA45E2
:1001A00001D100F031F8AFF2090EBAE80F0013F0F8
:1001B000010F18BFFB1A43F001031847A0410000CC
:1001C000C0410000103A24BF78C878C1FAD852075D
:1001D00024BF30C830C144BF04680C6070470000C1
:1001E0000023002400250026103A28BF78C1FBD840
:1001F000520728BF30C148BF0B6070471FB503F0DE
:1002000071FE1FBD10B510BD00F013FA1146FFF7C7
:10021000F5FF00F048FA00F031FA03B4FFF7F2FFFF
:1002200003BC00F039FA000009488047094800473C
:10023000FEE7FEE7FEE7FEE7FEE7FEE7FEE7FEE796
:10024000FEE7FEE704480549054A064B70470000F3
:100250007D0A000889010008E01F0020E025002039
:10026000E0210020E0210020EFF3108072B67047FB
:1002700080F3108870473A4A1368012B04D04FF07E
:1002800001031360374A1060374A116037484FF056
:10029000805101607047EFF3108272B630480168F8
:1002A00051B34FF0000101602E48016891B1EFF3A6
:1002B00009811EF0100F08BF21ED108B21E9F00F0E
:1002C0004FF000041EF0100F08BF012441F8044D48
:1002D0000068016024490968096808C9B1E8F00F9D
:1002E000002B18BFB1EC108B81F309884EF0100E73
:1002F000002B18BF2EF0100E82F310884EF0040E63
:10030000704719490860EFF3148222F0040282F367
:10031000148814494FF00000086011494FF00100A3
:10032000086013484FF47F01D0F8002041EA020131
:1003300001600E484FF0805101600E48006800686F
:1003400080F3088861B662B67047EFF3098000B5A4
:1003500002F03CF95DF804EB4EF0040E704700002B
:1003600040000020380000203C00002004ED00E0A8
:1003700020ED00E008ED00E040EA0103024630B560
:100380009B0710D14FF0013400E008C208C91D1BC3
:100390009D4315EAC41FF8D013F0FF0102F8011BBA
:1003A0000DD01B0AF8E711F8013B002B02F8013BC6
:1003B00005D011F8013B002B02F8013BF3D130BD11
:1003C00010B5431C02E010F8011B71B18107FAD18E
:1003D0004FF0013202C88C1A8C4314EAC211F9D0D2
:1003E000C01A0A0603D0C01E10BDC01A10BD0A04F0
:1003F00001D0801E10BD0902FCD0401E10BD40EA95
:10040000010370B59B072ED14FF00136042A2AD381
:1004100008C810C99D1B9D43121F15EAC61517D0A9
:10042000D8B2E1B2401A50EA056110D198B2A1B237
:10043000401A50EA05410AD123F07F4024F07F4161
:10044000401A50EA052102D1180EA0EB146070BDCD
:10045000A342DBD018BA21BA884201D9012070BD6D
:100460004FF0FF3070BD0AB9002070BD10F8013B9D
:1004700011F8014B63B1A3420AD1521E08D010F803
:10048000013B11F8014B1BB1A34201D1521EEDD12A
:10049000181B70BD421E12F8013F002BFBD111F852
:1004A000013B002B02F8013BF9D17047032A40F2CF
:1004B000308010F0030C00F0158011F8013BBCF106
:1004C000020F624498BF11F801CB00F8013B38BF1E
:1004D00011F8013BA2F1040298BF00F801CB38BF2C
:1004E00000F8013B11F0030300F02580083AC0F04A
:1004F000088051F8043B083A51F804CBA0E80810F2
:10050000F5E7121D5CBF51F8043B40F8043BAFF324
:100510000080D20724BF11F8013B11F801CB48BF7E
:1005200011F8012B24BF00F8013B00F801CB48BFB4
:1005300000F8012B704710B5203AC0F00B80B1E8ED
:100540001850203AA0E81850B1E81850A0E8185008
:10055000BFF4F5AF5FEA027C24BFB1E81850A0E811
:10056000185044BF18C918C0BDE810405FEA827C2B
:1005700024BF51F8043B40F8043B08BF7047D20742
:1005800028BF31F8023B48BF11F8012B28BF20F8E3
:10059000023B48BF00F8012B70474FF000020429CE
:1005A000C0F0128010F0030C00F01B80CCF1040CA2
:1005B000BCF1020F18BF00F8012BA8BF20F8022BD6
:1005C000A1EB0C0100F00DB85FEAC17C24BF00F87C
:1005D000012B00F8012B48BF00F8012B70474FF0AA
:1005E000000200B5134694469646203922BFA0E883
:1005F0000C50A0E80C50B1F12001BFF4F7AF09078F
:1006000028BFA0E80C5048BF0CC05DF804EB89007F
:1006100028BF40F8042B08BF704748BF20F8022BC2
:1006200011F0804F18BF00F8012B704770477047DA
:100630007047754600F02CF8AE46050069465346F3
:1006400020F00700854618B020B5FFF7FBFDBDE898
:1006500020404FF000064FF000074FF000084FF029
:10066000000B21F00701AC46ACE8C009ACE8C009BA
:10067000ACE8C009ACE8C0098D46704710B5044627
:10068000AFF300802046BDE81040FFF7C6BD000074
:10069000004870477C1F002001491820ABBEFEE7D0
:1006A00026000200704710B5FFF7DEFD03F03EFBA9
:1006B000002010BD00BFFEE77047F0B50A460021DC
:1006C0000023002400BF3DE0012505FA01F3156871
:1006D00005EA03049C4234D105684F000326BE405E
:1006E000B543056015794E00B54006683543056091
:1006F0001579012D02D01579022D16D185684F008C
:100700000326BE40B543856055794E00B5408668E6
:1007100035438560456801268E40B5434560456890
:1007200096798E40B6B235434560C5684F000326C2
:10073000BE40B543C560D5794E00B540C668354367
:10074000C560491C1029BFD3F0BDF0B500230024BB
:100750004D07ED0E02FA05F3CE1000F1200555F815
:1007600026504E07F70E0F26BE40B543CF1000F1BE
:10077000200646F82750CE1000F1200555F82650E7
:1007800045EA0304CE1000F1200545F82640F0BDEF
:10079000018370471CB50121202000F05BF84FF465
:1007A000C060009001208DF8040000208DF8060044
:1007B00003208DF8050001208DF8070069460448E4
:1007C000FFF77BFF4FF4C0610148FFF7E1FF1CBD5D
:1007D0000014024000BFFEE77047000070B5002122
:1007E00000230F22C4781CB3174C246804F4E0647F
:1007F000C4F5E064C4F30721C1F10404E3B20A4183
:1008000044789C40E1B28478144021430C07210EC7
:100810000E4C05786155047804F01F050124AC40A6
:1008200005786D11AD0005F1E025C5F8004109E03E
:10083000047804F01F050124AC40054D06787611BC
:1008400045F8264070BD00000CED00E000E400E03B
:1008500080E100E029B1064A12680243044B1A60A5
:1008600004E0034A12688243014B1A60704700009B
:100870003038024029B1064A12680243044B1A601C
:1008800004E0034A12688243014B1A60704700007B
:1008900044380240F0B50021002200240225002641
:1008A0000223324F3F6807F00C0121B1042905D023
:1008B000082937D105E02E4F076036E02D4F07603D
:1008C00033E02A4F3F1F3F68C7F38056274F3F1F33
:1008D0003F6807F03F036EB1264FB7FBF3F7DFF831
:1008E0008CC0ACF1040CDCF800C0CCF3881C07FB16
:1008F0000CF40CE01E4FB7FBF3F7DFF870C0ACF15F
:10090000040CDCF800C0CCF3881C07FB0CF4174F78
:100910003F1F3F68C7F301477F1C7D00B4FBF5F71D
:10092000076002E0124F076000BF00BF0F4F3F6833
:1009300007F0F0010909104F7A5C0768D74047605B
:100940000A4F3F6807F4E051890A0B4F7A5C476809
:10095000D7408760054F3F6807F46041490B064F59
:100960007A5C4768D740C760F0BD00000838024095
:100970000024F40000127A001400002070470000E8
:100980000CB50020019000903448006840F480309D
:100990003249086000BF3148006800F40030009020
:1009A0000198401C0190009818B90198B0F5A04F2B
:1009B000F1D12A48006800F4003010B10120009005
:1009C00001E0002000900098012846D123484030E3
:1009D000006840F08050214940310860204800689C
:1009E00040F440401E4908601C48083000681B491C
:1009F000083108600846006840F400400860084676
:100A0000006840F4A05008601648091F0860081FDD
:100A1000006840F08070091F086000BF0F48006840
:100A200000F000700028F9D040F205700E4908600F
:100A30000A480830006820F00300084908310860BF
:100A40000846006840F00200086000BF0348083014
:100A5000006800F00C000828F8D10CBD00380240F6
:100A60000070004008544007003C024010B501F0FF
:100A700099FE02F0EFFD01F0ABFE10BD10B5154878
:100A8000006840F47000134908601348006840F0A3
:100A900001001149086000200F49083108600E4824
:100AA00000680E4908400C4908600D48091D08609F
:100AB000081F006820F48020091F086000200649F4
:100AC0000C310860FFF75CFF4FF00060014980398E
:100AD000086010BD88ED00E000380240FFFFF6FE20
:100AE0001030002410B5024803F0B0F910BD00002A
:100AF000D409002001F40072B2F5007F00D100BFDC
:100B0000CA430280704710B50022002340F66A14E1
:100B1000A14200D100BF0A1201249440A3B2DC43D9
:100B2000048010BD21B1828942F40052828104E028
:100B300082894DF6FF731A40828170470246002079
:100B4000B1F5007F00D100BF13880B400BB101202D
:100B500000E00020704770B5024600240023002505
:100B6000002040F66A16B14200D100BFC1F3421521
:100B700001F01F03012606FA03F3012D02D1968925
:100B8000334006E0022D02D1168A334001E0968AF6
:100B900033400C12012606FA04F41688344013B1CF
:100BA0000CB1012000E0002070BDF0B50346002428
:100BB00000260025002040F66A17B94200D100BF88
:100BC0001846C1F3421401F01F06012707FA06F583
:100BD000012C01D10C3004E0022C01D1103000E0D6
:100BE00014301AB107682F43076002E00768AF436B
:100BF0000760F0BD2DE9FF4705460E460024A146DB
:100C000000BFA046B08900B100BF2C8A24F4405434
:100C1000F08804432C82AC8941F20C608443B08894
:100C200031890843718908430443AC81AC8A24F4B8
:100C30004074B0890443AC826846FFF72BFE20481D
:100C4000854202D01F48854202D1DDF80C9001E0B8
:100C5000DDF80890A88900F4004040B109EBC90014
:100C600000EB091031684900B0FBF1F707E009EB30
:100C7000C90000EB091031688900B0FBF1F764206E
:100C8000B7FBF0F004012009642101FB1078A8896A
:100C900000F4004040B1322000EBC800B0FBF1F09E
:100CA00000F00700044308E0322000EB0810642144
:100CB000B0FBF1F000F00F0004432C81BDE8FF878A
:100CC000001001400014014001468888C0F308006C
:100CD0007047C1F308028280704700BFFEE7000042
:100CE000014609B900207047C8B220B1C8B20E4A07
:100CF000105C401CF7E701F47F4028B10A48C1F3BB
:100D00000722805C0930EEE701F47F0028B1064835
:100D1000C1F30742805C1130E5E7034800EB116046
:100D200000781930DFE700001E400008034908681A
:100D3000884201D0012070470020FCE7D00000204D
:100D40002DE9F04397B0064650221C4903A8FFF74F
:100D5000F2FB0FF26C09484602F0DEF9804630469D
:100D600001F0D6F80746474500DA47464A46394675
:100D700015A001F07BFD384601F0EAF81CA001F057
:100D800075FD356814E0A5F10C04A17E207D1328C3
:100D900004DC207D03AA52F8200000E016982346C8
:100DA0000822CDE9000139461AA001F05FFD2D6847
:100DB000B542E8D1002017B0BDE8F083A43F000899
:100DC0006465766963650000252D2A2E7320202036
:100DD00020202020202074797065202020202020D1
:100DE00020202072656620636F756E740A00000013
:100DF000202D2D2D2D2D2D2D2D2D2D2D2D2D2D2D30
:100E00002D2D2D2D2D202D2D2D2D2D2D2D2D2D2D1F
:100E10000A000000252D2A2E2A7320252D3230733A
:100E200020252D38640A00002DE9FF41054628469B
:100E300001F06EF807461EA239461FA001F016FD0C
:100E4000384601F085F826A001F010FD2E6828E054
:100E5000A6F10C04606BA8B1D4E90931E269606BBA
:100E6000CDE90023CDE9021023460822394625A00A
:100E700001F0FCFC04F12C0002F08AFF20A001F03C
:100E8000F5FC0DE0D4E90931E269606BCDE900239E
:100E9000CDE9021023460822394621A001F0E6FCE4
:100EA0003668AE42D4D1002004B0BDE8F081000025
:100EB0006D656D706F6F6C00252D2A2E7320626C2E
:100EC0006F636B20746F74616C206672656520734C
:100ED000757370656E64207468726561640A0000E1
:100EE000202D2D2D2D20202D2D2D2D20202D2D2D73
:100EF0002D202D2D2D2D2D2D2D2D2D2D2D2D2D2D2F
:100F00000A000000252D2A2E2A7320253034642063
:100F100020253034642020253034642025643A00B4
:100F2000252D2A2E2A7320253034642020253034A4
:100F3000642020253034642025640A002DE9FC411A
:100F40000646304600F0E4FF0746092F00DA09277D
:100F500020A2394622A001F089FC384600F0F8FFB3
:100F600026A001F083FC35682FE0A5F10C0404F104
:100F700014000168814201D1012100E00021A9B9DA
:100F800004F1140001F0D8FC8046A08B234608220F
:100F90003946CDE900081FA001F068FC04F11400F7
:100FA00002F0F6FE14A001F061FC0DE004F1140063
:100FB00001F0C2FC8046A08B234608223946CDE9C9
:100FC000000818A001F052FC2D68B542CDD10020D8
:100FD000BDE8FC8173656D6170686F72650000002B
:100FE000252D2A2E73207620202073757370656E50
:100FF00064207468726561640A000000202D2D2D44
:10100000202D2D2D2D2D2D2D2D2D2D2D2D2D2D0A40
:1010100000000000252D2A2E2A732025303364205D
:1010200025643A00252D2A2E2A732025303364208A
:1010300025640A002DE9FC470646304600F068FFAB
:1010400082462BA251462C4801F010FC504600F07D
:101050007FFF2AA001F00AFCD6F8008043E0A8F147
:101060000C0494F83500234608225146009033A022
:1010700001F0FCFB94F8340000F00F05012D03D1C2
:1010800031A001F0F3FB0FE0022D03D131A001F0FC
:10109000EDFB09E01DB932A001F0E8FB04E0042DEE
:1010A00002D132A001F0E2FBA76A00E07F1C387891
:1010B0002328FBD0D4E90A10791A401A6421484346
:1010C000E16AB0FBF1F9216B206CCDE90001E36925
:1010D000A06AC01AE36AC1181A464B4626A001F05E
:1010E000C5FBD8F80080B045B9D10020BDE8FC8729
:1010F00074687265616400004C410008202D2D2D3C
:1011000020202D2D2D2D2D2D2D202D2D2D2D2D2D36
:101110002D2D2D2D202D2D2D2D2D2D2D2D2D2D2019
:10112000202D2D2D2D2D2D20202D2D2D2D2D2D2D16
:101130002D2D2D202D2D2D0A00000000252D2A2ECD
:101140002A73202533642000207265616479202091
:10115000000000002073757370656E64000000006D
:1011600020696E69742020200000000020636C6FED
:10117000736520200000000020307825303878206A
:1011800030782530387820202020253032642525FD
:1011900020202030782530387820253033640A002C
:1011A0002DE9FC410546284600F0B2FE074618A28C
:1011B000394619A001F05AFB384600F0C9FE20A0BC
:1011C00001F054FB2E6817E0A6F10C04D4E90901E4
:1011D00023460822CDE90001394622A001F046FB52
:1011E000607A00F0010018B124A001F03FFB02E09A
:1011F00025A001F03BFB3668AE42E5D102F024FAAF
:101200008046414624A001F031FB0020BDE8FC816E
:1012100074696D6572000000252D2A2E73202070E0
:101220006572696F64696320202074696D656F75EC
:101230007420202020202020666C61670A000000B6
:10124000202D2D2D2D2D2D2D2D2D2D202D2D2D2DE8
:101250002D2D2D2D2D2D202D2D2D2D2D2D2D2D2DCB
:101260002D2D0A00252D2A2E2A732030782530387E
:101270007820307825303878200000006163746968
:1012800076617465640A00006465616374697661FF
:101290007465640A0000000063757272656E7420E4
:1012A0007469636B3A3078253038780A00000000A2
:1012B0002DE9F0438BB0064688469146002400E0B5
:1012C000641C305D202804D0305D092801D04445DD
:1012D000F6D324B94FF0FF300BB0BDE8F0832146C0
:1012E000304600F021FD054615B94FF0FF30F3E719
:1012F000282101A8FFF773F901AA4146304600F002
:101300007DFD074617B94FF0FF30E5E701A93846E4
:10131000A847C9F800000020DEE700002DE9FC5FC7
:1013200004468B4615461E46DDE90C9ADDE90E782B
:1013300004F114004060006000BF1C346560A660CA
:10134000C4F80C90C4F810A02321D4E9030201F0E2
:10135000E6FBD4E9033C63441A1F0F4BD4E90101B7
:1013600001F0BCF92060A77667760020E061C4F840
:101370002080C4F82480606120766065A0651C3CF4
:1013800000902346054A2146019004F1440002F0F2
:10139000E3F90020BDE8FC9F79330008C53500085B
:1013A0002DE9F04704460E4617469846DDF8209092
:1013B00084F80990607A20F001006072E66127628B
:1013C0000020A062C4F82480002506E004F1140186
:1013D00001EBC50001F081FA6D1C012DF6DBBDE8C3
:1013E000F08710B50246002001460EE002F114031A
:1013F00003EBC100D0E900436360D0E9003423600F
:101400004060006000BF481C01460129EEDB10BDB2
:1014100070B504460D4600F05DFB002070BD70B550
:1014200004460D4600F0A4FB002070BD02460020DB
:101430007047000010B500F0DFFC20B107A109489B
:10144000FEF79AFF03E008A10648FEF795FF08A102
:101450000448FFF71FF8034810BD00006D736820B3
:1014600000000000A01C002066696E736820000068
:101470003E00000008B505E04FF0FF310848006865
:1014800001F0A4FD0649096801236A46486F991EC8
:1014900000F05EFF0128EFD19DF8000008BD0000BC
:1014A0002400002070B504460D460348006801F092
:1014B0006AFD002070BD00002400002070B50546C4
:1014C0000024284600F0C1FE044624B929461BA08A
:1014D00001F0CCF970BD21480068406FA04200D1F6
:1014E000F8E740F24311204600F0D8FE20BB1B482D
:1014F0000068406F50B119490968486F00F08AFED2
:1015000016490968486F002100F05BFF502113481D
:1015100000682230FFF741F800201049096881F87F
:1015200072000E49096881F873000C48006844672E
:101530000B49204600F045FF00BFCBE766696E739C
:10154000683A2063616E206E6F742066696E642055
:101550006465766963653A2025730A0024000020DB
:10156000A5140008024A1060024A1160704700008A
:10157000280000202C0000201FB51A491A48FFF748
:10158000F1FF782001F0F4F9184908600846006876
:1015900030B917A001F06AF94FF0FF3004B010BD68
:1015A000782112480068FFF71AF800231A4616A19E
:1015B0000E48006801F0D4FC0A2007214FF4805245
:1015C000134BCDE90032CDE902100023114A12A1DC
:1015D000134801F05FFF044614B9114801F0BAFF47
:1015E0000020DBE75C430008C44200082400002020
:1015F0006E6F206D656D6F727920666F72207368F3
:10160000656C6C0A000000007368727800000000CE
:10161000A00C002025160008747368656C6C00002F
:10162000280C00200120EB49096881F82100E948D5
:101630000068406F38B900F0CDFD054615B1284669
:10164000FFF73CFF00BFFFF7F5FE054601F00EF97E
:10165000BFE1FFF70FFF04461B2C05D10120DD4938
:10166000096881F82000B4E1DA48006890F82000A9
:1016700001280DD15B2C05D10220D649096881F8DB
:101680002000A6E10020D349096881F8200045E048
:10169000D048006890F8200002283FD10020CD49B2
:1016A000096881F82000412C00D192E1422C00D140
:1016B0008FE1442C11D1C748006890F8730058B1ED
:1016C000C5A001F0D3F8C348006890F87300401E2D
:1016D000C049096881F873007BE1432C1ED1BD48E5
:1016E000006890F87300BB49096891F8721088424D
:1016F00013DAB848006890F87320B64800682230C2
:10170000815CB6A001F0B2F8B248006890F87300AE
:10171000401CB049096881F873005AE10CB1FF2CF4
:1017200000D156E1092C1FD1002503E0AAA001F049
:101730009DF86D1CA748006890F87300A842F5DC7E
:10174000A4480068223002F007FBA248006822305B
:10175000FEF736FEC0B29F49096881F872009D49C4
:10176000096881F8730034E17F2C01D0082C6FD117
:101770009848006890F8730000B92AE1954800681D
:1017800090F87200401E9349096881F872009148F0
:10179000006890F87300401E8E49096881F8730054
:1017A0008C48006890F872008A49096891F87310B3
:1017B00088423FDD874B1B6893F87230854E366850
:1017C00096F873609A1B834B1B6893F873305B1C0D
:1017D000804E3668223699197E4B1B6893F87360E9
:1017E0007C4B1B682233F01801F078F9002179480E
:1017F000006890F87220774800682230815475485C
:10180000006890F87320734800682230111874A0A3
:1018100001F02CF86F48006890F8735003E06EA058
:1018200001F024F86D1C6B48006890F87200A84223
:10183000F5DA0BE06CA001F019F8002265480068A9
:1018400090F872106348006822304254C1E0FFE70C
:101850000D2C01D00A2C2BD100F0CEFA012812D188
:101860005C48006890F8210000F0010010B15FA012
:1018700000F0FCFF5748006890F872105548006867
:10188000223000F01BFAFFF7D5FD054600F0EEFF11
:101890005021504800682230FEF77FFE00204D495D
:1018A000096881F872004B49096881F8730090E07B
:1018B0004848006890F87200502804DB0020454931
:1018C000096881F872004348006890F87300414944
:1018D000096891F87210884245DA3E4B1B6893F80C
:1018E00072303C4E366896F873609A1B394B1B6811
:1018F00093F87360374B1B682233F118354B1B6824
:1019000093F873305B1C334E36682236981901F019
:10191000E5F83048006890F873102E4800682230CF
:1019200044542C48006890F8210000F0010050B1A8
:101930002848006890F87320264800682230111863
:101940002BA000F093FF2348006890F8735003E049
:1019500021A000F08BFF6D1C1E48006890F87200FB
:10196000A842F5DC12E01B48006890F87210194894
:101970000068223044541748006890F8210000F0B5
:10198000010018B1214615A000F070FF0024114895
:10199000006890F87200401C0E49096881F87200D6
:1019A0000C48006890F87300401C0A49096881F8E7
:1019B00073000848006890F87200502808DB002087
:1019C0000449096881F872000249096881F87300C6
:1019D00000BF3EE624000020080000002563000050
:1019E0000825732020080000082008000A000000D5
:1019F0002573000010B502A000F038FF002010BDD4
:101A000048656C6C6F2052542D5468726561642176
:101A10000A00000000BF0EE00020074908604FF4F4
:101A2000FA7001F0A2FC01200449C1F8A4024FF4AD
:101A3000FA7001F09AFCEFE7A48242420080424231
:101A400000BF0CE0002006490860642001F08DFC16
:101A500001200449C1F8A802642001F086FCF1E7E6
:101A6000A88242420080424210B50CA000F0FEFE67
:101A70000F4804680CE002220EA12068FEF7BFFCAC
:101A800000B904E00CA0216800F0F0FE00BF0834AB
:101A90000A4800688442EED3002010BD2D2D467503
:101AA0006E6374696F6E204C6973743A0A000000AB
:101AB000280000205F5F000025730A002C00002032
:101AC00010B5082001F092F80446201DFFF738F900
:101AD00010BD000010B50848016808A000F0C6FE5F
:101AE0000B4801680BA000F0C1FE0F4801680FA071
:101AF00000F0BCFE10BD000064000020746F746133
:101B00006C206D656D6F72793A2025640A000000C3
:101B10006800002075736564206D656D6F727920B3
:101B20003A2025640A0000006C0000206D6178698D
:101B30006D756D20616C6C6F6361746564206D659B
:101B40006D6F72793A2025640A00000010B50720F5
:101B500001F04CF80446201DFFF766F910BD10B5E2
:101B6000012001F043F80446201DFFF7E7F910BDFE
:101B700010B5002001F03AF80446201DFFF75AFA8C
:101B800010BD10B5092001F031F80446201DFFF703
:101B900007FB10BD1FB5142003214FF48062114BC9
:101BA000CDE90032CDE9021000230F4A0FA1114800
:101BB00001F070FC0F4801F0CDFC142003214FF41C
:101BC00080620D4BCDE90032CDE9021000230B4AB3
:101BD0000BA10D4801F05EFC0B4801F0BBFC00209E
:101BE00004B010BDD4010020151A00086C656430E3
:101BF00000000000E4000020D4050020411A000885
:101C00006C656431000000005C01002010B50446E2
:101C100000F0D2FAFFF7BEFF10BD00002DE9F0473B
:101C200081460026002799F8000028B900210846BF
:101C300000F0A8F8BDE8F0871B48046827E00622FA
:101C40001AA12068FEF7DBFB00B11FE0206800F15D
:101C500006084846FEF7B4FB8246524641464846CF
:101C6000FEF7CDFB88B926B947463846FEF7A8FBF4
:101C700006464146384602F0B6F80546B54200DA57
:101C80002E4641460BA000F0F1FD00BF08340A4883
:101C900000688442D3D327B132463946484601F022
:101CA00058FA00BFC6E70000280000205F5F636DA0
:101CB000645F000025730A002C00002038B504463C
:101CC0000D4601E0641C6D1E20782028FAD0207893
:101CD0000928F7D00DB9002038BD6A4629462046AC
:101CE000FFF7E6FA08B90098F6E7204600E0401C46
:101CF0000178202902D001780029F8D10021017053
:101D0000214603A000F0B2FD4FF0FF30E4E70000F1
:101D100025733A20636F6D6D616E64206E6F742061
:101D2000666F756E642E0A002DE9F04106460D4679
:101D300000271048046815E006220FA12068FEF76E
:101D40005EFB00B10DE02168881D2A463146FEF792
:101D500056FB28B9A81D2168085C08B9676805E02A
:101D600000BF0834064800688442E5D300BF384607
:101D7000BDE8F081280000205F5F636D645F0000B4
:101D80002C00002070B505460E460EA000F06EFD3A
:101D9000134804680DE0062212A12068FEF72FFB0D
:101DA00000B105E02068811D10A000F05FFD00BFBC
:101DB00008340F4800688442EDD30EA000F056FDB1
:101DC000002070BD52542D546872656164207368A0
:101DD000656C6C20636F6D6D616E64733A0A000010
:101DE000280000205F5F636D645F000025730A00B8
:101DF0002C0000200A000000012070472DE9F04768
:101E000082460E46904654460025002755E003E0E2
:101E100000202070641C6D1C2078202802D02078BF
:101E2000092801D1B542F3D30A2F12D326A000F01E
:101E30001DFD4FF0000906E058F829102AA000F017
:101E400015FD09F10109B945F6D326A000F00EFDF4
:101E500035E0B54200D332E0207822281CD1641C42
:101E60006D1C48F827407F1C09E020785C2804D1CD
:101E70006078222801D1641C6D1C641C6D1C2078C4
:101E8000222801D0B542F0D3B54200D317E000209C
:101E90002070641C6D1C10E048F827407F1C01E096
:101EA000641C6D1C2078202804D02078092801D0DB
:101EB000B542F5D3B54200D301E0B542A7D300BF88
:101EC0003846BDE8F0870000546F6F206D616E7971
:101ED00020617267732021205765206F6E6C792016
:101EE0005573653A0A0000002573200038B5044692
:101EF00094F850008DF8000000208DF801000120BA
:101F00008DF802008DF803006846FEF767FC38BDC7
:101F10002DE9F04106464FF00008002400F074FA65
:101F2000376809E0A7F10C08404601F0F5F80546CE
:101F3000A54200DD2C463F68B742F3D100F074FAA9
:101F4000082C00DC04B908242046BDE8F08100001C
:101F500010B5044602E004A000F088FC201EA4F1A5
:101F60000104F8D110BD00002D00000030B51A4C5E
:101F7000436824681919884215D04B889BB9174BC0
:101F80001B6899420FD0164B1B688B4201D1144B32
:101F900018604B684360104B1B68C31A0E4D4C68A9
:101FA0002D682C44A3600C4C836824681A19824263
:101FB00011D053887BB90A4B1B68834201D1084B6F
:101FC0001A6043685360044B1B68D31A024D44687F
:101FD0002D682C44A36030BD580000205C00002018
:101FE000600000202DE9F04F85B00D469C46DDE9EC
:101FF0000F740E9B04F04008B8F1000F02D0DFF818
:10200000688101E0DFF86481CDF8008004F01008F9
:10201000B8F1000F01D024F0010404F00108B8F178
:10202000000F02D04FF0300801E04FF02008C24608
:10203000002604F00208B8F1000F11D0002A02DADD
:102040002D2652420CE004F00408B8F1000F01D034
:102050002B2605E004F00808B8F1000F00D0202678
:10206000002142B94FF0300B8846491C0DF104099C
:1020700009F808B01DE01AE0E146B9F10A0F08D1ED
:102080004FF00A0BB2FBFBFE0BFB1E28B2FBFBF270
:1020900002E002F00F08120900BFDDF8009019F805
:1020A00008B08846491C0DF1040909F808B0002A57
:1020B000E2D1B94200DD0F46DB1B04F01108B8F194
:1020C000000F10D116B1002B00DD5B1E06E0A84208
:1020D00003D84FF0200880F80080401CB3F10008BE
:1020E000A3F10103F3DC26B1A84201D806705B1E00
:1020F000401C04F01008B8F1000F0AD104E0A84217
:1021000001D880F800A0401CB3F10008A3F101033E
:10211000F5DC06E0A84203D84FF0300880F80080D4
:10212000401CB8467F1E8845F4DC08E0A84205D86C
:102130000DF1040818F8018080F80080401CB1F10E
:102140000008A1F10101F1DC06E0A84203D84FF03C
:10215000200880F80080401CB3F10008A3F10103BF
:10216000F3DC05B0BDE8F08F2F4100081E410008E8
:102170001CB5142002214B020022CDE900100449B5
:1021800004A001F0CAF80446204601F0E3F91CBDA2
:102190000D1C00086D61696E0000000010B5044C54
:1021A00002E020688047241D02488442F9D310BD14
:1021B000B0420008B842000810B5044C02E02068A4
:1021C0008047241D02488442F9D310BDB84200085C
:1021D000C042000801480068704700005400002019
:1021E00070B505460A480668284600F02EF80446F1
:1021F00064B10748006818B10548006800F00AF8A3
:102200004321204600F04AF801480460304670BD82
:102210005400002070B504460025A07E08B9681E51
:1022200070BDA07E401EA076A07E08B10020F7E71A
:10223000E06A18B12046E16A884705460DB1A81D3D
:1022400008B9002020832846EAE72DE9F041064638
:1022500001F058F908B100F0D7F8082000F0C6FCEA
:1022600005466C6810E0A4F10C0708223146384698
:1022700000F05BFF38B901F045F908B100F0D4F87F
:102280003846BDE8F0812468281D8442EBD101F076
:1022900039F908B100F0C8F80020F2E770B504463B
:1022A0000E460025A07D00F0100088B9606A58B184
:1022B0002046616A8847054635B12A46214616A060
:1022C00000F0D4FA284670BDE08A40F01000E082A9
:1022D000A07D00F0080030B1207E00F0080010B1B1
:1022E0006FF00600EFE7A06A28B131462046A26AE7
:1022F0009047054603E040F60F70304020830DB153
:10230000A81D30B9208B40F008002083A07E401C1F
:10231000A0762846D7E70000546F20696E6974697B
:10232000616C697A65206465766963653A25732016
:102330006661696C65642E20546865206572726FF1
:102340007220636F64652069732025640A000000B1
:102350002DE9F04104460D4616461F46A07E30B9D1
:102360004FF0FF3000F06CFE0020BDE8F081206BE4
:1023700038B13B46324629462046D4F830C0E047C3
:10238000F3E76FF0050000F05BFE0020EDE770B5AD
:1023900004460D46164614B94FF0FF3070BD28466E
:1023A000FFF753FF10B14FF0FF30F7E72A4608213F
:1023B000204600F02FFCE6820020A076208300BF9C
:1023C000ECE70246D161002070472DE9F041044658
:1023D0000D4616461F46A07E30B94FF0FF3000F084
:1023E0002FFE0020BDE8F081606B38B13B463246DD
:1023F00029462046D4F834C0E047F3E76FF00500E3
:1024000000F01EFE0020EDE710B5FDF72DFF04469D
:1024100004480088401C00B2024908802046FDF7AD
:1024200027FF10BDC000002010B5FDF71DFF0446BA
:102430000B480088401E00B2094908800846B0F9E0
:102440000000002807DC002008802046FDF710FF70
:1024500000F0ECFC02E02046FDF70AFF10BD000092
:10246000C000002070B5054605B970BD1D48006864
:10247000854203D31C480068854200D3F5E7A5F1E7
:102480000C044FF0FF31194800F0A0FD608818B12E
:102490002088B0F5F55F08D015A000F0E7F9238893
:1024A0006288214619A000F0E1F9002060804FF415
:1024B000F550208021480068844201D21F48046002
:1024C000084960680968611A401A1D490968081AB4
:1024D0001B4908602046FFF749FD044800F053FD02
:1024E00000BFC2E7580000205C0000201C1F002035
:1024F000746F20667265652061206261642064618A
:10250000746120626C6F636B3A0A00006D656D3A0E
:10251000203078253038782C207573656420666CFF
:1025200061673A2025642C206D6167696320636FC1
:1025300064653A203078253034780A006000002045
:102540006800002070B5194800684FF47A72B0FB3B
:10255000F2F1481EB0F1807F00D31BE0481E4FF01F
:10256000E022506150170F22002807DA13071D0ED2
:102570000F4B00F00F04241F1D5503E013071C0E22
:102580000C4B1C5400BF00204FF0E022906107204C
:10259000106100BFFEF7FEF8FFF700FE06A0FFF790
:1025A0001FFE0749074800F0EFFD70BD0000002046
:1025B00018ED00E000E400E0756172743100000085
:1025C00000E00120E02500207047000070B50446BF
:1025D0001A48006838B120461849096888470546F6
:1025E00005B970BD00BF16A0E16900F03FF918A061
:1025F000A16900F03BF91AA0616900F037F91CA04D
:10260000216900F033F91EA0E16800F02FF920A045
:10261000A16800F02BF922A0616800F027F924A03E
:10262000216800F023F900F06DFF0546294624A03B
:1026300000F01CF9FFF79CFA00BFFEE74400002001
:102640007073723A203078253038780A0000000024
:102650002070633A203078253038780A0000000076
:10266000206C723A203078253038780A000000005B
:102670007231323A203078253038780A0000000074
:102680007230333A203078253038780A0000000064
:102690007230323A203078253038780A0000000055
:1026A0007230313A203078253038780A0000000046
:1026B0007230303A203078253038780A0000000037
:1026C00068617264206661756C74206F6E20746836
:1026D000726561643A2025730A000000F0B5044673
:1026E0000D461646301D20F00700443801460022F2
:1026F00003E00D4F41F82270521C112AF9D34D62AC
:102700004FF0000CC1F828C0C1F82CC0C1F830C08F
:10271000C1F834C08B63CC634FF0807CC1F840C0FB
:1027200000270F60F0BD0000EFBEADDE10B5144C09
:10273000002020751348E064252084F850004FF4F1
:10274000007204F1510104F1400000F002FB0E4858
:1027500060620E48A0620E48E0620E4820630E4898
:1027600060630020A063E0632046FFF7BFFB40F2F8
:1027700003120AA12046FFF70AFE002010BD000048
:10278000D409002000100140E13800080739000892
:10279000B13800083739000865390008756172746E
:1027A0003100000010B5FDF75FFD044604480078D5
:1027B000401C034908702046FDF75AFD10BD00007B
:1027C0004C00002001480078704700004C000020B9
:1027D00010B5FDF749FD044604480078401E034942
:1027E00008702046FDF744FD10BD00004C0000209D
:1027F0002DE9F04105460C469046204600F0C0FE0B
:10280000B8F1000F03D0B8F1010F23D105E004F1B6
:102810001401284600F079F81CE02E680FE0A6F1BC
:10282000140794F8350097F83510884206DA04F159
:10283000140107F1140000F068F802E03668AE42B7
:10284000EDD100BFAE4204D104F11401284600F0DE
:102850005CF800BF00BF0020BDE8F081014601F137
:1028600014004060006000BF002070470FB438B50E
:1028700005A800907F211548009B049A01F0BAF842
:1028800004467F2C00D97F241148006818B90F48EE
:10289000FFF79AFE15E00E480068058B0C480068AB
:1028A000008B40F040000A49096808832346074A24
:1028B000002107480068FFF788FD05480068058388
:1028C00000BF0020009038BC5DF814FB9C1E002067
:1028D0005400002040600060704740600060704716
:1028E0000268516002680A600160486070470268CF
:1028F000516002680A600160486070470268516078
:1029000002680A600160486070474268116042686E
:102910004A6041600860704701460868884201D1FA
:10292000012070470020FCE701460868884201D179
:10293000012070470020FCE7014600200A4601E024
:102940001268401C13688B42FAD17047D0E900210D
:102950005160D0E900121160406000607047D0E91A
:1029600000215160D0E900121160406000607047A2
:102970002DE9F041054615B90020BDE8F081E81CBD
:1029800020F003054E480068854201D90020F4E795
:102990000C2D00D20C254FF0FF314A4800F016FBF9
:1029A0004948006849490968461A7EE04748006876
:1029B00084196088002874D106F10C006168081A37
:1029C000A8426ED306F10C006168091A05F11800DF
:1029D000814230D306F10C0000EB05083B4800684B
:1029E00000EB08074FF4F5503880002078806068CD
:1029F0007860BE60C4F80480012060803048796847
:102A000000680C30814205D0304978680968084474
:102A1000C0F808802E48016805F10C0008442C49D4
:102A200008602C4800680968884219D22848006864
:102A30002849086014E00120608024496068096822
:102A4000611A401A2249096808442149086021484E
:102A500000680968884203D21D4800681D49086063
:102A60004FF4F550208018480068844212D107E0E6
:102A7000154800684068154909680844124908600B
:102A800011480068408828B10F4800681249096859
:102A90008842EDD10B4800F076FA04F10C006CE7A7
:102AA000FFE70A4800683044466805480068401B54
:102AB000B0423FF67BAF034800F065FA00205CE7C8
:102AC000640000201C1F002060000020580000202F
:102AD000680000206C0000205C00002070B50C46EF
:102AE000014623468B4210D29D188D420DD91144C8
:102AF000134405E05D1E2B462E784D1E29462E7090
:102B0000151EA2F10102F5D108E003E013F8015B04
:102B100001F8015B151EA2F10102F7D170BDF0B5FD
:102B20000C460546E6B2042A15D300F0030797B910
:102B3000014646EA062343EA034304E008C108C10C
:102B400008C108C1103A102AF8D201E008C1121FCA
:102B5000042AFBD20D4601E005F8016B171EA2F115
:102B60000102F9D1F0BD2DE9F04105460F46284696
:102B700000F03CF80646F068FFF7FAFE044614B988
:102B80000020BDE8F08125720020607208223946DD
:102B9000204600F0DEFAFDF767FB804604F10C01E9
:102BA000301DFFF79DFE4046FDF762FB2046E8E73B
:102BB00070B50446FDF758FB054604F10C00FFF71D
:102BC000C5FE2846FDF754FB2046FFF74BFC70BDC1
:102BD00070B50446FDF748FB054604F10C00FFF70D
:102BE000B5FE2846FDF744FB70BD000002460021FB
:102BF0000AE0074800EB01100078904203D1044836
:102C000000EB01107047491C0529F2DB0020F9E7B1
:102C1000700000202DE9F04104460D461646284676
:102C2000FFF7E4FF074645F0800020720822314696
:102C3000204600F08EFAFDF717FB804604F10C01E8
:102C4000381DFFF74DFE4046FDF712FBBDE8F08151
:102C50000146087A00F0800008B10120704700208A
:102C6000FCE710B50446204600F0CAF820B1012860
:102C700004D0022805D105E0002010BDB4F90800F9
:102C8000FBE700BFE0884008A188B0EB510F05DDED
:102C9000E0884008A188A0EB5100EEE7A08840083A
:102CA000E188A0EB5100B4F90810081AE5E72DE916
:102CB000F04104460E4615462046FFF7D2FF074670
:102CC00017B90020BDE8F081AF4200D2BDB2B4F91F
:102CD0000800A188A0EB5100A84210DDA28820685E
:102CE00000EB52012A463046FDF7E0FBA08805EBD9
:102CF0005000A18860F34F01A1802846E2E7B4F9B3
:102D00000800A388A0EB5302206800EB5301304673
:102D1000FDF7CCFBB4F90830B4F804C0A3EB5C03B6
:102D2000EA1AB4F90830A3EB5C0398192168FDF79F
:102D3000BDFB2079C043A18860F30001A1802089F8
:102D4000A188A0EB5100281A60F34F01A18028460A
:102D5000B8E710B50024838864F34F035C089BB286
:102D600064F3000383800024C38864F34F035C088A
:102D70009BB264F30003C380016022F0030303816C
:102D800010BD70B504460D46204600F039F80646E1
:102D9000E188206800EB51000570B4F90800401E7E
:102DA000E188B0EB510F19D1A079C043E18860F3FD
:102DB0000001E1800021E08861F34F00E080012EF6
:102DC0001CD12079C043A18860F30001A180E08874
:102DD0004108A08861F34F00A0800FE0E088012146
:102DE00001EB5000E18860F34F01E180012E05D135
:102DF000E0884108A08861F34F00A080012070BDE9
:102E0000014688884008CA88B0EB520F0BD1087978
:102E100000F001008A7902F00102904201D1002005
:102E200070470120FCE70220FAE700002DE9F0419D
:102E3000FDF71AFA07461B48008868BB1A48006865
:102E4000FDF74EFF461E194850F83600A0F1140455
:102E50001748006884421BD016490E701448056854
:102E600004601548007848B904F11C0105F11C0004
:102E7000FDF701FA3846FDF7FBF90CE004F11C01FF
:102E800005F11C00FDF7F7F93846FDF7F1F902E00E
:102E90003846FDF7EDF902E03846FDF7E9F9BDE8FF
:102EA000F0810000C0000020CC0000203C1F00206A
:102EB000C4000020C80000204C00002070B504466B
:102EC000FDF7D2F9054614F8340F20F00F0040F05A
:102ED000010020706278343C0A4B03EBC20004F11D
:102EE00014014268116042684A604160086000BF96
:102EF0000549A06B09680843034908602846FDF7A7
:102F0000B7F970BD3C1F0020CC00002070B504460E
:102F1000FDF7AAF9054604F11400D0E9002151603B
:102F2000D0E9001211604060006000BF94F83510D5
:102F3000094A02EBC1000168814201D1012100E090
:102F4000002129B10548A16B006888430349086046
:102F50002846FDF78DF970BD3C1F0020CC000020F5
:102F60002DE9F04104460D4616461F462A4601212A
:102F70002046FFF74FFE2046FFF770FCA6836772DE
:102F80000020BDE8F0812DE9F04104460025FDF761
:102F90006BF9074604F11400FFF7BEFC48B900BF07
:102FA0006069A0F11406304600F08EFA00BF0125DA
:102FB00002E0A08B401CA0833846FDF759F9012D93
:102FC00001D1FFF733FF0020BDE8F08173B505465E
:102FD000FDF74AF90646A88B002806DDA88B401E9F
:102FE000A8833046FDF744F928E0019828B9304617
:102FF000FDF73EF96FF001007CBD00F083FA044656
:10300000002020636A7A214605F11400FFF7F0FBE7
:103010000198002809DD01AA002104F1440000F014
:103020006FFB04F1440000F0AFFB3046FDF720F9E0
:10303000FFF7FCFE206B08B1206BDDE70020DBE72B
:1030400070B50446FFF7BEFB10B10648046070BDC2
:1030500000F058FA054615B902480460F7E72C63FA
:1030600000BFF4E75000002008B509A0FFF7FEFB01
:103070000AA0FFF7FBFB12A00323002219460090D1
:1030800012A0FFF7F3FB19A0FFF7F0FB08BD00004B
:103090000A205C207C202F0A000000002D205254C2
:1030A000202D2020202020546872656164204F70FC
:1030B00065726174696E672053797374656D0A0077
:1030C000417072203132203230313900202F207C83
:1030D000205C202020202025642E25642E256420BD
:1030E0006275696C642025730A000000203230305C
:1030F00036202D203230313820436F707972696765
:1031000068742062792072742D746872656164201D
:103110007465616D0A00000001460A4600E0521C19
:1031200010780028FBD1501A704730B503460020B4
:103130000BE011F8015B1C78641B64B2201E02D105
:1031400013F8015B05B902E0521E002AF1D100BF5D
:1031500030BD70B50346A2B118460C4600BF14F846
:10316000016B00F8016B3EB902E0002500F8015B3D
:10317000551E2A1EF9D102E0551E2A1EEFD100BFAE
:1031800000BF184670BD00002DE9F04105460E460F
:10319000E81C20F0030726F00308B8F1180F09D93E
:1031A000A8F11800B84205D3A8EB070018381E494B
:1031B000086006E0324629461CA0FFF757FBBDE831
:1031C000F0812948076004684FF4F55020801648C4
:1031D00000680C3060600020A06060802249606858
:1031E00009680844214908604FF4F55009680880CF
:1031F00001201E49096848800B4800680C301B49B3
:1032000009684860084800680C30184909688860F7
:103210000023012216A11848FFF7A2FE12480068F9
:103220001649086000BFCAE7640000206D656D2084
:10323000696E69742C206572726F722062656769AD
:103240006E206164647265737320307825782C2059
:10325000616E6420656E64206164647265737320BE
:10326000307825780A000000580000205C0000201B
:1032700068656170000000001C1F002060000020D5
:1032800010B500200B490880002405E00A4901EB35
:10329000C400FFF71FFB641C082CF7DB072007495D
:1032A0000870002006490860064908600648FFF7D4
:1032B00011FB10BDC00000203C1F0020C8000020F2
:1032C000C4000020CC000020D000002070B50848C9
:1032D0000068FDF705FD451E064850F83500A0F1D1
:1032E00014040548046004F11C00FDF70AF870BDE1
:1032F000CC0000203C1F0020C400002010B500249A
:1033000005E0044901EBC400FFF7E7FA641C002C58
:10331000F7D010BDD800002070472DE9FF5F0646AA
:103320000F4690461D46DDE90EAB31460020FFF703
:103330001AFC8146B9F1000F03D1002004B0BDE8AA
:10334000F09F2846FFF714FB044624B94846FFF7D0
:103350002FFC0020F2E743463A46314648468DE8C6
:10336000300CFDF7DBFF4846E8E710B50446204681
:1033700000F0CEF810BD000070B512480468FCF7EC
:1033800073FF05462046FFF7C1FD042084F8340092
:1033900004F1440000F0D0F92046FFF759FC012861
:1033A00005D1206F18B92046FFF712FC04E004F1A4
:1033B00014010548FFF79BFA2846FCF759FFFFF771
:1033C00035FD70BDC4000020D000002001E000F0F9
:1033D00001F8FCE770B537E0FCF746FF0546FDF75E
:1033E000A5FC18B31B480068A0F1140404F11400F4
:1033F000D0E900215160D0E9001211604060006006
:1034000000BFFFF701F8206F10B12046216F8847F9
:103410002046FFF71DFC012805D1FFF705F82846D7
:10342000FCF726FF70BDFEF7FFFF03E02846FCF720
:103430001FFFF7E72846FCF71BFFA06AFFF712F80B
:103440002046FFF7B5FB00BFFDF770FC0028C3D195
:1034500000BFE7E7D00000201FB520200721C200F1
:10346000074BCDE90032CDE902100023054A06A141
:10347000074800F00FF8064800F06CF81FBD000088
:103480009C1D0020CD3300087469646C6500000049
:10349000241D00202DE9FF5F05460C4616461F46F9
:1034A000DDE910ABDDE90E89224600212846FFF751
:1034B000B1FB3B463246214628468DE8000FFDF71A
:1034C0002DFF04B0BDE8F09F70B5044694F83400B9
:1034D00000F00F00022802D04FF0FF3070BDFCF763
:1034E000C3FE054604F11400FFF739FA04F1440065
:1034F00000F0C6F92846FCF7BBFE2046FFF7DEFCCD
:103500000020EBE70148006870470000C40000207D
:1035100031B5FCF7A9FE05460D480468204600F0C9
:103520002FF86A46002104F1440000F0E9F804F1A4
:10353000440000F029F92846FCF79AFEFFF776FCD4
:10354000206B801C08B900202063002038BD0000DB
:10355000C400002010B504463434A078607061784F
:10356000012088406060022004F834092046FFF7FB
:10357000ABFFFFF7C7FF08B1FFF758FC002010BDF5
:1035800070B5044694F8340000F00F00012802D012
:103590004FF0FF3070BDFCF767FE054694F834002D
:1035A00020F00F0040F0020084F834002046FFF7BE
:1035B000ADFC04F1440000F063F92846FCF758FE26
:1035C0000020E7E770B5044625466FF00100286348
:1035D00005F11400FFF7C3F92846FFF76FFCFFF76A
:1035E00025FC70BD70B5FCF73FFE05461448046825
:1035F00094F8340000F00F0001281CD1D4E9051024
:10360000814218D004F11400FFF7A9F994F835208D
:103610000C4B03EBC20004F11401426811604268D4
:103620004A604160086000BF2846FCF721FEFFF7B2
:10363000FDFB002070BD2846FCF71AFE0020F9E7CC
:10364000C40000203C1F00200148006870470000B3
:103650004800002010B50A480068401C084908606E
:10366000FFF750FF0446206C401E2064206C18B900
:10367000E06B2064FFF7B6FF00F004F810BD000017
:103680004800002070B5FFF7DFFF0546FCF7ECFDB2
:10369000064628E019480068A0F11404A06A281A18
:1036A0006FF0004188421DD22046FDF79AFED4E912
:1036B00007108847FFF7C8FF0546607A00F0020050
:1036C00058B1607A00F0010038B1607A20F0010052
:1036D0006072204600F058F805E0607A20F00100A2
:1036E000607200E004E00548FFF71EF90028D1D021
:1036F00000BF3046FCF7BCFD70BD0000D8000020C4
:10370000034649B1012904D0022908D0032910D168
:103710000AE0586A10600CE01068586209E0587AB4
:1037200020F00200587204E0587A40F0020058720B
:1037300000BF00BF0020704770B50446FCF794FD41
:1037400005462046FDF74DFE2846FCF791FD204634
:10375000FFF73EFA002070BD2DE9F84307460C46FE
:1037600015461E46DDE90889224609213846FFF73D
:1037700051FA4346324629463846CDF80090FDF7C7
:103780000FFEBDE8F88300002DE9F8430546FCF77D
:103790006BFD80462846FDF724FE687A20F0010084
:1037A00068724046FCF764FDFFF74EFF696A084403
:1037B000A862FCF759FD80462F4F009700242AE0AD
:1037C00019E05DF824201168142202EBC402881A63
:1037D000826AAB6AD21A00D108E0826AAB6AD21A56
:1037E0006FF000439A4200D20CE000BF5DF8240065
:1037F00000684DF824005DF8240007EBC401496817
:103800008842DED100BF2CB15DF824000830611C75
:103810004DF82100641C002CD2D018480068401CD0
:10382000164908600846066805F114010098FFF77C
:1038300065F8022412E006F0030060B9C4F1010348
:1038400005F1140202EBC301C4F101025DF822008C
:10385000FFF754F800E003E0B608641C012CEAD935
:1038600000BF687A40F0010068724046FCF700FD36
:103870000020BDE8F8830000D8000020E000002010
:1038800070B50446607A00F0010010B94FF0FF30C7
:1038900070BDFCF7E9FC05462046FDF7A2FD284671
:1038A000FCF7E6FC607A20F0010060720020EFE790
:1038B00030B501460A46C88A00F4807058B192F9C2
:1038C000500000F01F040123A340044C450944F8B4
:1038D000253000BF00BF002030BD000080E100E0C7
:1038E00070B50446254601210846FCF7B3FF0121C7
:1038F0001020FCF7BFFFE86C00F086FAE86C00F0DF
:10390000CBFA002070BD30B502460B461146D08A76
:1039100000F4807068B191F9500000F01F05012497
:10392000AC404509AD0005F1E025C5F8004100BFF8
:1039300000BF002030BD2DE9F04704468A461546F9
:103940001E46A046FCF790FC8146B2B2294608F11B
:103950004000FFF7ACF907464846FCF789FC3846BB
:10396000BDE8F0872DE9F0470746894690461E4698
:1039700045463C46387E00F0400010B31EE02878F3
:103980000A280AD100BF4021E06CFDF7D7F80028D3
:10399000F9D00D21E06CFDF79CF900BF4021E06CEF
:1039A000FDF7CCF80028F9D02978E06CFDF791F903
:1039B0004021E06CFDF79EF86D1C761E002EDED1D6
:1039C00013E010E000BF4021E06CFDF7B7F80028DD
:1039D000F9D02978E06CFDF77CF94021E06CFDF727
:1039E00089F86D1C761E002EECD1A5EB0800BDE811
:1039F000F08700002DE9FF4F89B0804644460A98C1
:103A00004044461E464504D24FF0FF36A6EB080060
:103A10000A906FE10B980078252806D0B44202D8AE
:103A20000B9800782070641C61E1002526E00B985B
:103A3000401C0B900B9800782D2802D145F0100502
:103A40001CE00B9800782B2802D145F0040515E006
:103A50000B980078202802D145F008050EE00B985D
:103A60000078232802D145F0200507E00B98007864
:103A7000302802D145F0010500E000E0D7E700BFA3
:103A80004FF0FF370B98007830380A2804D20BA883
:103A900000F096F907460EE00B9800782A280AD124
:103AA0000B98401C0B900C9880C80C90002F02DAE9
:103AB0007F4245F010054FF0FF390B9800782E2813
:103AC0001CD10B98401C0B900B98007830380A28BA
:103AD00004D20BA800F074F981460AE00B98007834
:103AE0002A2806D10B98401C0B900C9850F8049B88
:103AF0000C90B9F1000F01DA4FF00009002004909A
:103B00000B980078682803D00B9800786C2805D1B2
:103B10000B98007804900B98401C0B900A2005909D
:103B20000B9800786F2875D00CDC632813D004DC68
:103B3000252870D058286FD18DE064286DD0692871
:103B4000F9D18FE070286AD0732825D0752878D0F5
:103B50007828F0D182E005F0100040B904E0B442CA
:103B600001D820202070641C781E071EF7DC0C98FA
:103B700010F8041B0C90C8B20790B44201D8079803
:103B80002070641C04E0B44201D820202070641C22
:103B9000781E071EF7DCAAE00C98006806900C98C7
:103BA000001D0C90069808B95AA006900698FFF7D9
:103BB000B3FA8346B9F1000F02DDCB4500DDCB46F9
:103BC00005F0100048B904E0B44201D8202020706C
:103BD000641C38467F1E5845F6DC002008900BE038
:103BE000B44202D8069800782070641C0698401CE5
:103BF00006900898401C089008985845F0DB04E0AF
:103C0000B44201D820202070641C38467F1E5845DD
:103C1000F6DC6CE01CE015E028E022E0FFE7781C11
:103C200010B9082745F00105CDE9007902950C98F7
:103C300004C8102331460C902046FEF7D3F9044601
:103C400055E012E0B44201D825202070641C4EE0FB
:103C5000082005901DE045F0400500BF10200590AC
:103C600017E000BF45F0020500BF12E0B44201D8E2
:103C700025202070641C0B98007830B1B44202D823
:103C80000B9800782070641C02E00B98401E0B908B
:103C90002DE000BF04986C2807D10C9850F804ABB5
:103CA0000C9005F00200B8B116E0049868280BD11A
:103CB0000C9830F8041B1FFA81FA0C9005F00200F2
:103CC00050B10FFA8AFA07E00C9850F804AB0C9048
:103CD00005F0020000B100BFCDE90079029552461F
:103CE00031462046059BFEF77DF9044600BF0B9840
:103CF000401C0B900B98007800287FF48BAEB442E8
:103D000001D8207001E000203070A4EB08000DB055
:103D1000BDE8F08F284E554C4C290000002070471C
:103D200000207047002070470020704710B5FCF756
:103D30009BFAFEF707FCFFF797F9FFF7DFFAFFF7AB
:103D40009FFAFEF715FAFFF7E7FAFFF785FBFFF793
:103D5000BDFA002010BD000070B5044609A0FEF7B2
:103D600085FDFEF749F8012802D12046FDF756FFF0
:103D7000FDF760FB05462246294603A0FEF776FDC7
:103D800070BD00000A0000002573257300000000CC
:103D900070B5044625680CE0A5F11406314606A06E
:103DA000FEF764FD2868A04202D004A0FEF75EFD85
:103DB0002D68A542F0D170BD257300002F000000D2
:103DC0000146002009E00B685A1C0A601A7800EBD3
:103DD000800302EB4302A2F130000A681278303A05
:103DE0000A2AF0D3704710B503461A4601E0521C68
:103DF000491C107828B1087818B110780C78A042C6
:103E0000F5D0D01A10BD00001CB5044602208DF874
:103E1000040000208DF8060001208DF80700002026
:103E20008DF805004FF4C060009007220921064874
:103E3000FCF78BFC07220A210348FCF786FC694645
:103E40000148FCF73AFC1CBD0000024070B5044676
:103E5000FEF7A8FC40F22551E06CFCF77CFE98B11F
:103E6000E06CFCF731FFC5B2294604F14000FEF7D3
:103E700088FFE06940B104F14000FEF7F2FE05461C
:103E800029462046E269904740F22551E06CFCF754
:103E90003AFEFEF79DFC70BD1FB504464FF4E130BD
:103EA00000900020ADF80400ADF80600ADF8080061
:103EB0000C20ADF80A000020ADF80C006946204641
:103EC000FCF798FE012240F225512046FCF76DFEDA
:103ED00001212046FCF726FE1FBD10B5FFF7C4F8F0
:103EE000002010BD4FF04070E1EE100A7047000056
:103EF00068656C6C6F0076657273696F6E005F5FEA
:103F0000636D645F76657273696F6E006C6973745C
:103F10005F746872656164005F5F636D645F6C69A4
:103F200073745F746872656164006C6973745F7345
:103F3000656D005F5F636D645F6C6973745F73656B
:103F40006D006C6973745F6D656D706F6F6C005F91
:103F50005F636D645F6C6973745F6D656D706F6FC7
:103F60006C006C6973745F74696D6572005F5F6388
:103F70006D645F6C6973745F74696D6572006C6900
:103F800073745F646576696365005F5F636D645F2A
:103F90006C6973745F646576696365006C697374DA
:103FA000000000004442000800420008944100085C
:103FB000A8410008C041000890410008DC41000809
:103FC000CC41000880420008EC4100089C420008F7
:103FD00088420008B44100089042000820420008CE
:103FE000704200081042000834420008584200089D
:103FF000784200085F5F636D645F68656C70005FA6
:104000005F636D645F7073005F5F636D645F7469AD
:104010006D65005F5F636D645F66726565000000DB
:104020000100020001000300010002000100040081
:104030000100020001000300010002000100050070
:104040000100020001000300010002000100040061
:10405000010002000100030001000200010006004F
:104060000100020001000300010002000100040041
:104070000100020001000300010002000100050030
:104080000100020001000300010002000100040021
:10409000010002000100030001000200010007000E
:1040A0000100020001000300010002000100040001
:1040B00001000200010003000100020001000500F0
:1040C00001000200010003000100020001000400E1
:1040D00001000200010003000100020001000600CF
:1040E00001000200010003000100020001000400C1
:1040F00001000200010003000100020001000500B0
:1041000001000200010003000100020001000400A0
:104110000100020001000300010002000100303133
:10412000323334353637383961626364656600305E
:10413000313233343536373839414243444546000D
:104140006C6973745F6D656D00000000252D2A2E6B
:10415000732070726920207374617475732020203D
:1041600020202073702020202020737461636B2036
:1041700073697A65206D61782075736564206C655C
:104180006674207469636B20206572726F720A0016
:10419000525443004E6574776F726B20496E74659C
:1041A00072666163650000004D5444204465766981
:1041B00063650000535049204465766963650000DB
:1041C00043414E2044657669636500004772617023
:1041D000686963204465766963650000536F756E96
:1041E00064204465766963650000000055534220F1
:1041F000536C617665204465766963650000000054
:10420000426C6F636B204465766963650000000053
:10421000506F7274616C20446576696365000000BC
:10422000504D2050736575646F20446576696365F1
:104230000000000054696D6572204465766963650D
:104240000000000043686172616374657220446518
:1042500076696365000000004D697363656C6C618D
:104260006E656F75732044657669636500000000B4
:104270005069706500000000556E6B6E6F776E00C0
:1042800049324320427573005350492042757300F0
:104290005344494F2042757300000000555342209B
:1042A000486F73742042757300000000293D0008B8
:1042B000213D00082D2700081D3D00087915000844
:1042C000253D0008F03E0008F5190008F63E0008FC
:1042D000DB3E0008FE3E0008DB3E00080C3F000805
:1042E000711B0008183F0008711B00082A3F0008D6
:1042F0005F1B0008333F00085F1B0008423F0008B7
:104300004D1B00084F3F00084D1B0008623F00088E
:10431000831B00086D3F0008831B00087E3F0008D8
:10432000C11A00088A3F0008C11A00089C3F000813
:10433000691A0008F43F0008851D0008FF3F0008C7
:104340001F140008084000082D140008134000083E
:104350001114000840410008D51A00087C430008E9
:1043600000000020E4000000C401000860440008D0
:10437000E4000020FC240000E0010008007A030AA9
:104380000000000000000000010203040607080905
:1043900000000000010203040102030406070809EB
:1043A000000000000000000000000000000000000D
:1043B00000000000000000000000000000000000FD
:1043C00000000000000000000000000000000000ED
:1043D00000000000000000000000000000000000DD
:1043E00000000000000000000000000000000000CD
:1043F000740000207400002078000000010000001C
:10440000840000208400002020000000070000003D
:1044100094000020940000203800000008000000F4
:10442000A4000020A40000204000000009000000BB
:10443000B4000020B40000202C00000000000000A8
:10444000000000000000000000000000000000006C
:10445000000000000000000000000000000000005C
:040000050800018965
:00000001FF
